:020000040800F2
:1000000000800120314700085F12000861120008DB
:100010006312000865120008671200080000000063
:100020000000000000000000000000007146000811
:100030006912000800000000A146000805470008FA
:10004000814700086B1200088147000881470008BB
:10005000731200087B1200088147000881470008DE
:100060008147000881470008814700088147000850
:100070008147000881470008814700088147000840
:1000800081470008814700087D1200080000000039
:100090000000000000000000000000008147000890
:1000A0008D12000881470008814700088147000839
:1000B000A5120008B5120008C5120008D5120008E4
:1000C000E51200088147000881470008F512000882
:1000D0008147000881470008051300080000000060
:1000E00081470008814700088147000800000000A0
:1000F0000000000000000000000000008147000830
:10010000000000008147000815130008814700081F
:1001100000000000000000000000000000000000DF
:10012000814700088147000881470008814700088F
:1001300081470008000000000000000000000000EF
:1001400000000000000000000000000081470008DF
:10015000814700088147000881470008814700085F
:1001600081470008814700080000000000000000EF
:10017000000000000000000000000000000000007F
:10018000000000008147000800000000000000009F
:04019000814700089B
:1001A00001F0FF01102A2BDB10F0070F08D010F828
:1001B000013B013A8B422DD010F0070F42B3F6D12C
:1001C000F0B441EA012141EA014122F007047FF045
:1001D00000070023F0E80256083C85EA010586EA9C
:1001E000010685FA47F5A3FA87F586FA47F6A5FAD8
:1001F00087F68EB9EED1F0BC01F0FF0102F00702E4
:1002000032B110F8013B013A83EA010313B1F8D18E
:100210000020704701387047002D06BF354603386F
:10022000073815F0010F07D1013015F4807F02BFA8
:10023000013015F4C03F0130F0BC0138704700BFF9
:10024000034613F8012B002AFBD1181A0138704716
:1002500081F0004102E000BF83F0004330B54FEA77
:1002600041044FEA430594EA050F08BF90EA020FE4
:100270001FBF54EA000C55EA020C7FEA645C7FEA77
:10028000655C00F0E2804FEA5454D4EB5555B8BF9A
:100290006D420CDD2C4480EA020281EA030382EA0B
:1002A000000083EA010180EA020281EA0303362D9D
:1002B00088BF30BD11F0004F4FEA01314FF4801C70
:1002C0004CEA113102D0404261EB410113F0004F82
:1002D0004FEA03334CEA133302D0524263EB430339
:1002E00094EA050F00F0A780A4F10104D5F1200ED7
:1002F0000DDB02FA0EFC22FA05F2801841F1000132
:1003000003FA0EF2801843FA05F359410EE0A5F105
:1003100020050EF1200E012A03FA0EFC28BF4CF036
:10032000020C43FA05F3C01851EBE37101F00045EC
:1003300007D54FF0000EDCF1000C7EEB00006EEBF9
:100340000101B1F5801F1BD3B1F5001F0CD3490883
:100350005FEA30004FEA3C0C04F101044FEA4452DA
:1003600012F5800F80F09A80BCF1004F08BF5FEA61
:10037000500C50F1000041EB045141EA050130BD41
:100380005FEA4C0C404141EB0101013C28BFB1F553
:10039000801FE9D291F0000F04BF01460020B1FA9E
:1003A00081F308BF2033A3F10B03B3F120020CDA71
:1003B0000C3208DD02F1140CC2F10C0201FA0CF04F
:1003C00021FA02F10CE002F11402D8BFC2F1200CB4
:1003D00001FA02F120FA0CFCDCBF41EA0C0190406A
:1003E000E41AA2BF01EB0451294330BD6FEA0404B3
:1003F0001F3C1CDA0C340EDC04F11404C4F120029E
:1004000020FA04F001FA02F340EA030021FA04F3AF
:1004100045EA030130BDC4F10C04C4F1200220FA06
:1004200002F001FA04F340EA0300294630BD21FA44
:1004300004F0294630BD94F0000F83F4801306BF0A
:1004400081F480110134013D4EE77FEA645C18BFFE
:100450007FEA655C29D094EA050F08BF90EA020F95
:1004600005D054EA000C04BF1946104630BD91EA8D
:10047000030F1EBF0021002030BD5FEA545C05D190
:100480004000494128BF41F0004130BD14F58004CF
:100490003CBF01F5801130BD01F0004545F0FE4143
:1004A00041F470014FF0000030BD7FEA645C1ABF78
:1004B000194610467FEA655C1CBF0B46024650EAAF
:1004C000013406BF52EA033591EA030F41F40021DB
:1004D00030BD00BF90F0000F04BF0021704730B561
:1004E0004FF4806404F132044FF000054FF0000136
:1004F00050E700BF90F0000F04BF0021704730B5F7
:100500004FF4806404F1320410F0004548BF4042CB
:100510004FF000013EE700BF42004FEAE2014FEA20
:1005200031014FEA02701FBF12F07F4393F07F4FFB
:1005300081F06051704732F07F4208BF704793F0FE
:100540007F4F04BF41F40021704730B54FF4607411
:1005500001F0004521F000411CE700BF50EA010214
:1005600008BF704730B54FF000050AE050EA0102BD
:1005700008BF704730B511F0004502D5404261EB2D
:1005800041014FF4806404F132045FEA915C3FF46E
:10059000D8AE4FF003025FEADC0C18BF03325FEA0B
:1005A000DC0C18BF033202EBDC02C2F1200300FABC
:1005B00003FC20FA02F001FA03FE40EA0E0021FAE1
:1005C00002F11444BDE600BF70B54FF0FF0C4CF4CF
:1005D000E06C1CEA11541DBF1CEA135594EA0C0F81
:1005E00095EA0C0F00F0DEF82C4481EA030621EABC
:1005F0004C5123EA4C5350EA013518BF52EA0335F7
:1006000041F4801143F4801338D0A0FB02CE4FF0A8
:100610000005E1FB02E506F00042E0FB03E54FF0D8
:100620000006E1FB03569CF0000F18BF4EF0010ED0
:10063000A4F1FF04B6F5007F64F5407404D25FEACC
:100640004E0E6D4146EB060642EAC62141EA55517F
:100650004FEAC52040EA5E504FEACE2EB4F1FD0CC1
:1006600088BFBCF5E06F1ED8BEF1004F08BF5FEA3F
:10067000500E50F1000041EB045170BD06F00046F1
:1006800046EA010140EA020081EA0301B4EB5C049E
:10069000C2BFD4EB0C0541EA045170BD41F4801196
:1006A0004FF0000E013C00F3AB8014F1360FDEBFBB
:1006B000002001F0004170BDC4F10004203C35DA97
:1006C0000C341BDC04F11404C4F1200500FA05F31A
:1006D00020FA04F001FA05F240EA020001F00042BB
:1006E00021F0004110EBD37021FA04F642EB060131
:1006F0005EEA430E08BF20EAD37070BDC4F10C045B
:10070000C4F1200500FA04F320FA05F001FA04F21E
:1007100040EA020001F0004110EBD37041F100010A
:100720005EEA430E08BF20EAD37070BDC4F1200515
:1007300000FA05F24EEA020E20FA04F301FA05F27D
:1007400043EA020321FA04F001F0004121FA04F225
:1007500020EA020000EBD3705EEA430E08BF20EAF5
:10076000D37070BD94F0000F0FD101F0004640002F
:1007700041EB010111F4801F08BF013CF7D041EAB1
:10078000060195F0000F18BF704703F000465200B5
:1007900043EB030313F4801F08BF013DF7D043EA86
:1007A0000603704794EA0C0F0CEA135518BF95EA3C
:1007B0000C0F0CD050EA410618BF52EA4306D1D1C3
:1007C00081EA030101F000414FF0000070BD50EAE2
:1007D000410606BF1046194652EA430619D094EA6C
:1007E0000C0F02D150EA013613D195EA0C0F05D156
:1007F00052EA03361CBF104619460AD181EA0301AA
:1008000001F0004141F0FE4141F470014FF0000061
:1008100070BD41F0FE4141F4780170BD70B54FF0FC
:10082000FF0C4CF4E06C1CEA11541DBF1CEA13557C
:1008300094EA0C0F95EA0C0F00F0A7F8A4EB05045E
:1008400081EA030E52EA03354FEA013100F0888055
:100850004FEA03334FF0805545EA131343EA12631E
:100860004FEA022245EA111545EA10654FEA0026D3
:100870000EF000419D4208BF964244F1FD0404F58C
:10088000407402D25B084FEA3202B61A65EB0305E8
:100890005B084FEA32024FF480104FF4002CB6EBA5
:1008A000020E75EB030E22BFB61A754640EA0C0025
:1008B0005B084FEA3202B6EB020E75EB030E22BF65
:1008C000B61A754640EA5C005B084FEA3202B6EBA6
:1008D000020E75EB030E22BFB61A754640EA9C0065
:1008E0005B084FEA3202B6EB020E75EB030E22BF35
:1008F000B61A754640EADC0055EA060E18D04FEAF3
:10090000051545EA16754FEA06164FEAC30343EA92
:1009100052734FEAC2025FEA1C1CC0D111F4801F5F
:100920000BD141EA00014FF000004FF0004CB6E758
:1009300011F4801F04BF01430020B4F1FD0C88BFF7
:10094000BCF5E06F3FF6AFAEB5EB030C04BFB6EB02
:10095000020C5FEA500C50F1000041EB045170BDF5
:100960000EF0004E4EEA113114EB5C04C2BFD4EB22
:100970000C0541EA045170BD41F480114FF0000EA6
:10098000013C90E645EA060E8DE60CEA135594EA22
:100990000C0F08BF95EA0C0F3FF43BAF94EA0C0F25
:1009A0000AD150EA01347FF434AF95EA0C0F7FF49A
:1009B00025AF104619462CE795EA0C0F06D152EAEE
:1009C00003353FF4FDAE1046194622E750EA4106D2
:1009D00018BF52EA43067FF4C5AE50EA41047FF4E3
:1009E0000DAF52EA43057FF4EBAE12E74FF0FF3C48
:1009F00006E000BF4FF0010C02E000BF4FF0010C19
:100A00004DF804CD4FEA410C7FEA6C5C4FEA430C91
:100A100018BF7FEA6C5C1BD001B050EA410C0CBFE0
:100A200052EA430C91EA030F02BF90EA020F002042
:100A3000704710F1000F91EA030F58BF994208BFA9
:100A400090422CBFD8176FEAE37040F00100704766
:100A50004FEA410C7FEA6C5C02D150EA013C07D1BD
:100A60004FEA430C7FEA6C5CD6D152EA033CD3D008
:100A70005DF8040B704700BF8446104662468C4602
:100A80001946634600E000BF01B5FFF7B7FF002835
:100A900048BF10F1000F01BD4DF808EDFFF7F4FF5E
:100AA0000CBF012000205DF808FB00BF4DF808EDE9
:100AB000FFF7EAFF34BF012000205DF808FB00BF0C
:100AC0004DF808EDFFF7E0FF94BF012000205DF82E
:100AD00008FB00BF4DF808EDFFF7CEFF94BF0120E3
:100AE00000205DF808FB00BF4DF808EDFFF7C4FFDC
:100AF00034BF012000205DF808FB00BF4FEA410C25
:100B00007FEA6C5C02D150EA013C0AD14FEA430C07
:100B10007FEA6C5C02D152EA033C02D14FF0000044
:100B200070474FF0010070474FEA410212F5001282
:100B300015D211D56FF47873B3EB625212D94FEA24
:100B4000C12343F0004343EA505311F0004F23FA0E
:100B500002F018BF404270474FF00000704750EA63
:100B6000013005D111F0004008BF6FF00040704720
:100B70004FF00000704700BF53B94AB9002908BFC1
:100B800000281CBF4FF0FF314FF0FF3000F00CB8D1
:100B9000ADF1080C6DE904CE06F016FBDDF804E0BB
:100BA000DDE9022304B07047704700BF0348044BDF
:100BB000834202D0034B03B118477047E001002085
:100BC000E0010020000000000548064B1B1AD90F69
:100BD00001EBA301491002D0034B03B11847704742
:100BE000E0010020E00100200000000010B5064CEC
:100BF000237843B9FFF7DAFF044B13B10448AFF38E
:100C000000800123237010BDE001002000000000DF
:100C10008474000808B5054B1BB105490548AFF3BE
:100C20000080BDE80840FFF7CFBF00BF0000000014
:100C3000E40100208474000808B50268034B9A425E
:100C400000D008BD01F02EFBFBE700BF00400140D3
:100C500072B6FEE700B595B03022002108A805F075
:100C600099FC002303930493059306930793019340
:100C70001F4A116C41F080511164126C02F08052D5
:100C80000192019A02931B490A6822F4404242F4FD
:100C900000420A600A6802F440420292029A02216B
:100CA000089101220B9210220C920E910F93109238
:100CB0004FF4A8731193042312930723139308A8E6
:100CC00000F094FC80B90F230393022104910023C8
:100CD00005934FF480520692079303A800F0F0FEAC
:100CE00020B915B05DF804FBFFF7B2FFFFF7B0FFC6
:100CF000003802400070004008B501F0B9FAFFF773
:100D0000A9FF00F013F800F01BFA064C236800203E
:100D100098476368002108469847034804F02CF878
:100D2000FBE700BF00000020A074000800B58DB0F4
:100D300000220792089209920A920B9201922E4B7E
:100D4000196B41F001011963196B01F00101019167
:100D500001990292196B41F002011963196B01F0BC
:100D60000201029102990392196B41F00401196387
:100D7000196B01F00401039103990492196B41F07E
:100D800008011963196B01F0080104910499059297
:100D9000196B41F010011963196B01F010010591F5
:100DA000059906921A6B42F080021A631B6B03F0DE
:100DB00080030693069B4FF6FF7307930323089364
:100DC00007A90E4801F096F807A90D4801F092F81E
:100DD00007A90C4801F08EF807A90B4801F08AF822
:100DE00007A90A4801F086F807A9094801F082F826
:100DF0000DB05DF804FB00BF003802400000024067
:100E00000004024000080240000C024000100240B2
:100E1000001C024000B587B003682C4A934218D0EA
:100E2000B3F1804F29D02A4A934235D0294A9342C0
:100E30003FD0294A93422CD100230593274B1A6CAB
:100E400042F008021A641B6C03F008030593059B2B
:100E50001FE000220192214B596C41F001015964BD
:100E60005B6C03F001030193019B0F21182001F03B
:100E7000EBF9182001F0F8F90BE000230293174B6F
:100E80001A6C42F001021A641B6C03F00103029316
:100E9000029B07B05DF804FB002303930F4B1A6C11
:100EA00042F002021A641B6C03F002030393039BDB
:100EB000EFE700230493094B1A6C42F004021A6412
:100EC0001B6C03F004030493049BE2E70000014061
:100ED0000004004000080040000C004000380240C0
:100EE00000B58BB0002305930693079308930993ED
:100EF0000368B3F1804F0BD0324A93421FD0324A7D
:100F0000934232D0314A934245D00BB05DF804FB96
:100F1000002301932E4B1A6B42F001021A631B6BE4
:100F200003F001030193019B202305930223069301
:100F30000123099305A9274800F0DCFFE5E700231A
:100F40000293234B1A6B42F001021A631B6B03F0EE
:100F500001030293029B4023059302230693099306
:100F600005A91C4800F0C6FFCFE700230393184BE8
:100F70001A6B42F002021A631B6B03F00203039325
:100F8000039B4023059302230693099305A9124866
:100F900000F0B0FFB9E7002304930D4B1A6B42F049
:100FA00001021A631B6B03F001030493049B0123EA
:100FB000059302230693099305A9064800F09AFFBA
:100FC000A3E700BF0004004000080040000C004000
:100FD00000380240000002400004024030B58FB0EB
:100FE0000446016040F2E733C360472343600023B7
:100FF00083600361154602B943618023A3612046E3
:1010000002F0FCFBD8B900230A930B930C930D93C9
:101010004FF480530A930AA9204602F0F0FC88B9E5
:101020009DB900230893099308A9204602F030FED9
:1010300040BB2046FFF7EEFE3DBB0FB030BDFFF7D3
:1010400007FEE0E7FFF704FEEAE7204602F002FCB5
:10105000A8B900220192029203920492059206928C
:1010600007926023019340F2F313029301A92046F3
:1010700002F04AFC0028D4D0FFF7EAFDD1E7FFF7E1
:10108000E7FDE6E7FFF7E4FDD3E72046FFF728FF9B
:101090000021204602F042FD0028CED0FFF7D8FD07
:1010A000CBE7000000B583B001904FF6FF7301223B
:1010B00001A9034802F085FF019803B05DF804FB25
:1010C0005804002010B588B00023039304930593BF
:1010D000069307930268184B9A4201D008B010BDDE
:1010E0000024019403F5FA331A6C42F400321A64B6
:1010F0001A6C02F400320192019A02941A6B42F0C7
:1011000001021A631B6B03F001030293029B0C2381
:10111000039302230493032306930723079303A94E
:10112000064800F0E7FE22460521262001F08CF853
:10113000262001F099F8D1E7004400400000024069
:1011400008B50C480C4B03604FF4E13343600023B7
:101150008360C36003610C2242618361C36102F05A
:1011600000FF18B90348FFF7ADFF08BDFFF770FD9A
:10117000F8E700BF5804002000440040032807D8C7
:10118000DFE800F00709020404487047044870478C
:101190007047044870470448704700BF3803002078
:1011A000F0020020C803002080030020F8B50C46A0
:1011B000642900D96424FFF7E1FF05462046FFF7C4
:1011C00089F90022084BFFF729FB06460F46E8681D
:1011D000FFF780F932463B46FFF7F6F9FFF7A4FC2C
:1011E0002B685863F8BD00BF0000594008B50328BC
:1011F00009D8DFE800F002090F1501224FF0804105
:101200000A48FFF7EBFE08BD012209490948FFF72C
:10121000E5FEF8E7012208490848FFF7DFFEF2E79C
:10122000012207490748FFF7D9FEECE7C803002071
:101230000004004080030020000800403803002024
:10124000000C0040F002002008B5FFF797FF0021D6
:1012500002F0DCFC00B908BDFFF7FAFCFBE7FEE793
:10126000FEE7FEE7FEE7FEE7704708B500F088FFFF
:1012700008BD08B500F06EFD08BD704708B502480E
:1012800000F011F908BD00BFFC01002008B50348BB
:1012900002F0AFF9024802F0ACF908BD10040020DA
:1012A000A004002008B5024802F0A3F908BD00BF61
:1012B000C803002008B5024802F09BF908BD00BF32
:1012C0008003002008B5024802F093F908BD00BF72
:1012D0003803002008B5024801F0DAFE08BD00BF5F
:1012E0004402002008B5024801F0A2FF08BD00BF7B
:1012F0004402002008B5024801F0FAFF08BD00BF13
:101300009802002008B5024802F04EFF08BD00BF59
:101310005804002008B5024802F06BF908BD00BF70
:10132000F00200200120704708B505F00FF91623E0
:1013300003604FF0FF3008BD08B54FF0FF31FFF7F5
:10134000F3FFFEE770B50C461646002506E0AFF346
:101350000080214601F8010B01350C46B542F6DB51
:10136000304670BD70B50C461646002504E014F8F2
:10137000010BFFF797FE0135B542F8DB304670BD33
:101380004FF0FF3070474FF400534B600020704720
:10139000012070470020704710B582B000240094EF
:1013A000194B5A6C42F480425A645A6C02F48042DF
:1013B0000092009A01941A6C42F080521A641B6CDD
:1013C00003F080530193019B22460F216FF001002F
:1013D00000F03AFF22460521012000F035FF0120F0
:1013E00000F042FF22460521042000F02DFF0420DA
:1013F00000F03AFF22460521084600F025FF0520AF
:1014000000F032FF02B010BD0038024030B589B0A4
:101410000546002401941D4B5A6C42F480325A64F4
:101420005B6C03F480330193019B02A903A800F0D5
:101430001DFC00F00BFC164AA2FB00239B0C013B99
:101440001448154A026040F2E732C260436004610A
:101450008460846102F0D2F9044610B1204609B0DC
:1014600030BD0C4802F084F804460028F6D118205C
:1014700000F0FAFE0F2D01D90124EFE700222946E2
:10148000182000F0E1FE054B1D60E7E70038024040
:1014900083DE1B43A0040020004001401000002018
:1014A00070477047704770B5044603681E685D68F2
:1014B00016F0020F2FD005F0200262B3026C12F07A
:1014C000100F03D1026C42F4007202649A6812F0A9
:1014D000405F19D1227EBAB9DA6A12F4700F03D0D4
:1014E0009A6812F4806F0FD15A6822F020025A6075
:1014F000236C23F480732364236C13F4805F03D183
:10150000236C43F0010323642046FFF7C9FF2368DF
:101510006FF012021A6005F0800316F0040F37D046
:10152000002B35D0236C13F0100F03D1236C43F440
:101530000053236423689A6812F4401F21D19A6BE8
:1015400012F4401F03D09A6812F4806F19D15A68C0
:1015500012F4806F15D19A6812F0405F11D1227E8B
:101560007AB95A6822F080025A60236C23F48053BF
:101570002364236C13F4807F03D1236C43F00103B5
:101580002364204600F030F823686FF00C021A60E4
:1015900005F0400316F0010F05D023B123681B6846
:1015A00013F0010F06D105F0806516F0200F00D072
:1015B00065B970BD236C43F4803323642046FFF784
:1015C00070FF23686FF001021A60ECE7636C43F070
:1015D0000203636423686FF020051D602046FFF757
:1015E00061FF23681D60E4E770470000002800F0F9
:1015F000E08170B582B00446036813F0010F3BD060
:101600009F4B9B6803F00C03042B2CD09C4B9B68D6
:1016100003F00C03082B21D06368B3F5803F4FD053
:10162000B3F5A02F52D0964B1A6822F480321A607C
:101630001A6822F480221A606368002B50D000F0F0
:101640003DFE05468E4B1B6813F4003F14D100F09D
:1016500035FE401B6428F5D90320B1E1884B5B6857
:1016600013F4800FD8D0864B1B6813F4003F03D0CF
:101670006368002B00F09F81236813F0020F54D0A1
:101680007F4B9B6813F00C0F3ED07D4B9B6803F0A3
:101690000C03082B33D0E368002B68D0794B012270
:1016A0001A6000F00BFE0546754B1B6813F0020F25
:1016B00054D100F003FE401B0228F5D903207FE13E
:1016C0006F4A136843F480331360B5E76C4B1A68B4
:1016D00042F480221A601A6842F480321A60ABE742
:1016E00000F0ECFD0546664B1B6813F4003FC3D0C9
:1016F00000F0E4FD401B6428F5D9032060E1604B55
:101700005B6813F4800FC6D15D4B1B6813F0020FAA
:1017100003D0E368012B40F05081594A136823F04D
:10172000F803216943EAC1031360236813F0080F2B
:1017300042D063696BB3534B0122C3F8802E00F093
:10174000BDFD05464E4B5B6F13F0020F34D100F028
:10175000B5FD401B0228F5D9032031E1484A136842
:1017600023F0F803216943EAC1031360DDE7454B29
:1017700000221A6000F0A2FD0546414B1B6813F0E1
:10178000020FD2D000F09AFD401B0228F5D90320A9
:1017900016E13C4B0022C3F8802E00F08FFD054679
:1017A000374B5B6F13F0020F06D000F087FD401B34
:1017B0000228F5D9032003E1236813F0040F77D042
:1017C0002F4B1B6C13F0805F33D1002301932C4B04
:1017D0001A6C42F080521A641B6C03F08053019320
:1017E000019B0125284B1B6813F4807F23D0A3683D
:1017F000012B34D0052B38D0214B1A6F22F0010277
:101800001A671A6F22F004021A67A368002B3DD0F2
:1018100000F054FD06461A4B1B6F13F0020F46D121
:1018200000F04CFD801B41F288339842F3D903202D
:10183000C6E00025D6E7144A136843F480731360AA
:1018400000F03CFD0646104B1B6813F4807FCED1A0
:1018500000F034FD801B0228F5D90320B0E0084ACF
:10186000136F43F001031367CFE7054B1A6F42F084
:1018700004021A671A6F42F001021A67C5E700BF37
:1018800000380240000047420070004000F016FDA2
:101890000646524B1B6F13F0020F08D000F00EFDEE
:1018A000801B41F288339842F3D9032088E0EDB9D8
:1018B000A369002B00F08380484A926802F00C0272
:1018C000082A51D0022B17D0454B00221A6600F08F
:1018D000F5FC0446414B1B6813F0007F42D000F03A
:1018E000EDFC001B0228F5D9032069E03B4A136C8C
:1018F00023F080531364DBE7394B00221A6600F0B3
:10190000DDFC0546354B1B6813F0007F06D000F068
:10191000D5FC401B0228F5D9032051E0E369226A77
:101920001343626A43EA8213A26A5208013A43EA05
:101930000243E26A43EA0263284A5360284B0122C9
:101940001A6600F0BBFC0446244B1B6813F0007FB2
:1019500006D100F0B3FC001B0228F5D903202FE0CC
:1019600000202DE000202BE0012B2BD01B4B5B68CF
:1019700003F48001E269914226D103F03F02216A1B
:101980008A4223D1616A47F6C0721A40B2EB811FC6
:101990001ED103F44031A26A5208013AB1EB024F62
:1019A00018D103F07063E26AB3EB026F14D1002028
:1019B00006E001207047012002E0012000E0002045
:1019C00002B070BD0120FBE70120F9E70120F7E735
:1019D0000120F5E70120F3E70120F1E7003802409C
:1019E0000000474208B5334B9B6803F00C03042BFF
:1019F0005BD0082B5BD12F4B5A6802F03F025B682B
:101A000013F4800F2CD02B4B5868C0F388104FEA8A
:101A1000401CBCEB000C6EEB0E0E4FEA8E1343EA3B
:101A20009C634FEA8C11B1EB0C0163EB0E03DB00FE
:101A300043EA5173C90011EB000C43F10003590252
:101A400000234FEA4C2041EADC51FFF795F8194B8F
:101A50005B68C3F3014301335B00B0FBF3F027E0A5
:101A6000144B5868C0F388104FEA401CBCEB000CC4
:101A70006EEB0E0E4FEA8E1343EA9C634FEA8C1115
:101A8000B1EB0C0163EB0E03DB0043EA5173C900B9
:101A900011EB000C43F10003990200234FEA8C2064
:101AA00041EA9C51FFF768F8D1E7034800E003489A
:101AB00008BD00BF0038024000127A000024F40084
:101AC000002800F09B8070B50D4604464F4B1B6804
:101AD00003F007038B4208D2CBB24C4A1370136851
:101AE00003F007038B4240F08B80236813F0020F52
:101AF00017D013F0040F04D0454A936843F4E05321
:101B00009360236813F0080F04D0414A936843F4AC
:101B1000604393603E4A936823F0F003A1680B434F
:101B20009360236813F0010F32D06368012B21D03A
:101B30009A1E012A25D9364A126812F0020F61D086
:101B400033498A6822F0030213438B6000F0B6FB2E
:101B500006462F4B9B6803F00C036268B3EB820FC1
:101B600016D000F0ABFB801B41F288339842F0D9CD
:101B7000032042E0264A126812F4003FE0D101201F
:101B80003BE0234A126812F0007FD9D1012034E0F3
:101B90001E4B1B6803F00703AB4207D9EAB21B4B8D
:101BA0001A701B6803F00703AB422DD1236813F0B2
:101BB000040F06D0164A936823F4E053E1680B4300
:101BC0009360236813F0080F07D0114A936823F439
:101BD0006043216943EAC1039360FFF703FF0C4BA5
:101BE0009B68C3F303130B4AD35CD8400A4B1860BD
:101BF0000A4B1868FFF70AFC002070BD01207047EF
:101C00000120FAE70120F8E70120F6E7003C024056
:101C100000380240B07400081400002010000020BA
:101C2000014B1868704700BF1400002008B5FFF78B
:101C3000F7FF044B9B68C3F38223034AD35CD8406D
:101C400008BD00BF00380240A874000808B5FFF7BF
:101C5000E7FF044B9B68C3F34233034AD35CD8408D
:101C600008BD00BF00380240A87400080F230360BD
:101C70000B4B9A6802F0030242609A6802F0F0028D
:101C800082609A6802F4E052C2609B68DB0803F449
:101C9000E0530361034B1B6803F007030B607047BD
:101CA00000380240003C0240274BDB6813F0100F65
:101CB00007D0264AD36943F01003D361224B102288
:101CC000DA60214BDB6813F0200F07D01F4AD3697D
:101CD00043F00803D3611C4B2022DA601A4BDB6807
:101CE00013F0400F07D0194AD36943F00403D361BE
:101CF000154B4022DA60144BDB6813F0800F07D0DD
:101D0000124AD36943F00203D3610F4B8022DA6099
:101D10000D4BDB6813F4807F08D00C4AD36943F085
:101D20000103D361084B4FF48072DA60064BDB6825
:101D300013F0020F07D0054AD36943F02003D361A3
:101D4000014B0222DA607047003C0240E8040020A8
:101D50007047704710B53A4BDB6813F4F97F13D026
:101D6000384B1B78DBB2012B3BD0364B1B78DBB2F8
:101D7000022B3CD0334B5C69FFF796FF2046FFF700
:101D8000E8FF304B00221A702D4BDB6813F0010F77
:101D900013D02B4B0122DA602A4B1B78DBB2934223
:101DA00028D0284B1B78DBB2022B41D0254B586939
:101DB000FFF7CEFF234B00221A70224B1B787BB912
:101DC0001F4B1A6922F0FF021A611A6922F0807211
:101DD0001A611A6922F000721A611A4B00221A76EF
:101DE00010BD184BDC684FF0FF32DA60C4E7154BCA
:101DF0001C69C1E7134B5A68013A5A605B685BB1D2
:101E0000104CE068FFF7A4FFE3680133E360E0688B
:101E1000217A00F019F8D0E70A4B4FF0FF34DC606C
:101E200000221A7000F036F82046FFF791FFC4E751
:101E300000F030F8034B1869FFF78AFFBAE700BFDC
:101E4000003C0240E804002001291BD002291CD0DC
:101E500009B14FF440710E4B1A6922F440721A61B5
:101E60001A690A431A611A6922F0F8021A611A699A
:101E700042EAC00040F0020018611A6942F4803260
:101E80001A6170474FF48071E5E74FF40071E2E7A3
:101E9000003C0240164B1B6813F4007F10D0144B1B
:101EA0001A6822F400721A601A6842F400621A601A
:101EB0001A6822F400621A601A6842F400721A600A
:101EC0000B4B1B6813F4806F10D0094B1A6822F477
:101ED00080621A601A6842F480521A601A6822F40A
:101EE00080521A601A6842F480621A60704700BF1C
:101EF000003C024000230F2B00F2D78070B582B067
:101F000065E085684FEA430E032404FA0EF425EADF
:101F10000405CC6804FA0EF42C438460446824EA77
:101F200002044A68C2F300129A40224342605CE015
:101F3000DC08083450F8242003F00705AD004FF00A
:101F40000F0E0EFA05FE22EA0E0E0A69AA4042EAB8
:101F50000E0240F824205CE0042200E0002202FA95
:101F60000EF22A430234514D45F82420504A946819
:101F70006FEA0C0224EA0C054E6816F4801F01D0AB
:101F80004CEA04054A4CA560E46802EA04054E6880
:101F900016F4001F01D04CEA0405454CE560646866
:101FA00002EA04054E6816F4003F01D04CEA04052D
:101FB0003F4C6560246822404D6815F4803F01D095
:101FC0004CEA04023A4C226001330F2B6BD80122F9
:101FD0009A400C6804EA020C32EA0404F4D14C681A
:101FE00004F00304013C012C8BD94A6802F003027F
:101FF000032A09D0C4685D000322AA4024EA02042F
:102000008A68AA402243C2604A6802F00302022A98
:102010008ED004684FEA430E032202FA0EF224EA3D
:1020200002044A6802F0030202FA0EF2224302603E
:102030004A6812F4403FC7D0002201921D4A546CF6
:1020400044F480445464526C02F480420192019A38
:102050009C08A51C154A52F8255003F0030E4FEAC0
:102060008E0E0F2202FA0EF225EA0205124A904263
:102070003FF474AF02F5806290420ED002F58062A8
:1020800090420CD002F5806290420AD002F5806244
:1020900090423FF461AF072261E701225FE702222D
:1020A0005DE703225BE702B070BD70470038014076
:1020B000003C0140003802400000024070B5044678
:1020C000866D00F0FBF894F83530DBB2022B06D0B9
:1020D00080236365002384F83430012070BD0546F9
:1020E0002268136823F0160313602268536923F0F3
:1020F00080035361236CE3B12268136823F0080363
:1021000013602268136823F00103136023681B68BF
:1021100013F0010F11D000F0D1F8431B052BF5D9B6
:1021200020236365032084F83500002384F83430CD
:10213000D4E7A36C002BDFD1E3E7E26D3F239340AC
:10214000B360012384F83530002084F83400C5E7FB
:1021500090F83530DBB2022B03D080234365012099
:102160007047052380F835300268136823F00103B7
:1021700013600020704790F83500704770470000EA
:1021800008B5064B5B6913F4803F00D108BDFFF72B
:10219000F5FF024B4FF480325A61F7E7003C0140F3
:1021A000002807DB00F01F02400901239340024A88
:1021B00042F82030704700BF00E100E0002808DB53
:1021C0000901C9B200F1604000F5614080F80013D8
:1021D000704700F00F000901C9B2014B1954704754
:1021E00014ED00E000B500F00700C0F1070CBCF1F1
:1021F000040F28BF4FF0040C031D062B0FD9C31E7C
:102200004FF0FF3E0EFA0CF021EA000199400EFA61
:1022100003FE22EA0E0241EA02005DF804FB0023FD
:10222000EEE70000074AD36823F4E0631B041B0CAD
:10223000000200F4E060034343F0BF6343F4003363
:10224000D360704700ED00E010B50446054BD86838
:10225000C0F30220FFF7C6FF01462046FFF7AEFF9E
:1022600010BD00BF00ED00E008B5FFF799FF08BD05
:1022700008B50B4B1A6842F400721A601A6842F4EF
:1022800080621A601A6842F480721A600320FFF7B5
:10229000C9FF0F20FFF7BAF8FFF77EF8002008BD4E
:1022A000003C0240034A1168034B1B780B44136047
:1022B000704700BF080500200C000020014B186883
:1022C000704700BF0805002003685A6912F0800FAC
:1022D00001D000221A61704790F83E30DBB2402BEB
:1022E00010D00369B3F5804F1BD0036D002B39D19B
:1022F000436CC3F3C813026803F0060343F0F00312
:1023000013617047036D2BB9436C026803F0FE0341
:1023100013617047436C026843F00103DBB2136141
:10232000704790F83D30DBB2212B0FD0436C026830
:1023300043F00103DBB21361436B6BB1DB6B5BB149
:102340000268536843F4006353607047436C02684B
:1023500003F0FE031361EFE7836B33B1DB6B002BFC
:10236000EED102E0036D012B00D07047436CC3F344
:10237000C813026803F0060343F0F1031361F4E7A6
:10238000436C0268DBB21361436B3BB1DB6B2BB177
:102390000268536843F4006353607047836B002BFB
:1023A000FBD0DB6B002BF3D1F7E7000010B48BB050
:1023B00090F83E30DAB2C16A046B90F83D30DBB27F
:1023C000222B0BD00023099303685A6909929B6959
:1023D0000993099B0BB05DF8044B7047036D0BB973
:1023E000402A17D0036D1BB90369B3F5404F19D0CC
:1023F000438D9BB2002B25D1029303685A69029248
:102400009A690292029A1A6842F400721A600023D2
:102410000365DFE7009303685A6900929B690093A4
:10242000009BD7E70023019303685A6901929A69D8
:102430000192019A1A6842F480721A60036D0133A6
:102440000365C7E7438D9BB2012B1CD0438D9BB224
:10245000022B72D00268136843F480631360036830
:102460005A6812F4006F00F0A980202900F2AF80B2
:10247000082980F09C80012940F0A0805A6842F42D
:1024800080525A609AE011F5803F11D0082934D06B
:10249000202932D0122C2ED0042940D002293ED03F
:1024A00010293CD00268136823F4806313603BE07A
:1024B0000268136823F48063136003685A6812F497
:1024C000006F0CD01A6822F480621A600023039314
:1024D00003685A6903929B690393039B97E7002261
:1024E00004925A6904929A690492049A1A6842F40E
:1024F00000721A608BE70129D0D00268136823F4B8
:10250000806313600023069303685A6906929A69F0
:102510000692069A1A6842F400721A6077E7026817
:10252000136843F4806313600023059303685A69BA
:1025300005929B690593059B69E7102904D8264BF2
:10254000CB4013F0010F19D10268136823F48063A4
:1025500013600268136843F40063136003685A68E9
:1025600012F4006F16D020291DD808290CD2012999
:1025700010D15A6842F480525A600BE00268136826
:1025800043F480631360E9E70839144ACA4012F043
:10259000010FEED10023079303685A6907929B69E4
:1025A0000793079B33E711F5803FF3D1E1E7083943
:1025B0000A4ACA4012F0010F7FF460AF002308936B
:1025C00003685A6908929B690893089B1FE711F5F5
:1025D000803FF3D152E700BF140001000101000168
:1025E000438D9BB25BB1426A036812781A61436AF9
:1025F00001334362438D9BB2013B9BB243857047DD
:10260000438D9BB25BB103681A69436A1A70436ACF
:1026100001334362438D9BB2013B9BB243857047BC
:1026200082B0002301930E4B1B68DB080D4AA2FB0E
:1026300003231B0A03EB83030193019B013B0193DB
:10264000019B33B103681B6813F4007FF5D10020B0
:1026500004E0036C43F020030364012002B07047E0
:102660001400002089B5F814C36AB3F52A0F04D00A
:10267000C36AB3F12A4F03D070470123C362704786
:102680000823C362F8E770477047704708B590F8B1
:102690003D30DAB2438D9BB283B1416A0368097859
:1026A0001961436A01334362438D9BB2013B9BB284
:1026B0004385438D9BB20BB9292A00D008BD02681F
:1026C000536823F48063536021230363282380F835
:1026D0003D30FFF7DAFFF1E7704708B590F83D307D
:1026E000DAB2438D9BB283B103681969436A1970EA
:1026F000436A01334362438D9BB2013B9BB24385E6
:10270000438D9BB20BB92A2A00D008BD02685368DA
:1027100023F48063536022230363282380F83D3031
:10272000FFF7DAFFF1E7704700B583B090F83D306E
:1027300003F02803282B0CD0002301930268516971
:10274000019192690192019A80F83C3003B05DF8E2
:1027500004FB0268536823F48063536011F0040F94
:102760000BD0002311F0800F09D18289002180F85D
:102770003C101946FFF7D7FFE8E70123F2E7028B89
:10278000F4E7704710B5044690F83D30DBB2C26AFA
:10279000082A01D0202A01D1282B06D0212B1FD0B6
:1027A00023686FF480625A6110BD1D4BE36222689A
:1027B000536823F4E063536023686FF480625A61C6
:1027C0002268136823F480631360002323632022AC
:1027D00084F83D2084F83E302046FFF7D2FFE3E73F
:1027E0000F4BE36221232363202384F83D30002331
:1027F00084F83E302268536823F4E0635360236812
:102800006FF480625A612268136823F48063136056
:102810002046FFF759FD2046FFF737FFC4E700BF0A
:102820000000FFFF704708B5C26A90F83D30DBB288
:10283000212B00D008BD438D9BB263B1426A03686F
:1028400012781A61436A01334362438D9BB2013BA4
:102850009BB24385EEE7082A04D0202A02D012F565
:10286000803F19D10268536823F4E0635360026823
:10287000136843F40073136000230363202380F87C
:102880003D3090F83E30DBB2402B15D0002380F86D
:102890003E30FFF7F8FECDE70268536823F4E063AB
:1028A000536011230363002380F83E30202380F817
:1028B0003D30FFF7E8FEBDE7002380F83E30FFF72C
:1028C000B1FFB7E708B590F83D30026D9AB9C36C17
:1028D000012B08D0836CC3F3072302681361036DD7
:1028E0000133036508BD836C0268DBB21361036DBD
:1028F00002330365F6E7DBB2026D012A23D0026DD5
:10290000022A3ED1222B26D0428D92B20AB1212B2F
:102910002AD0428D92B2002AE4D1212BE2D1026862
:10292000536823F4E06353600268136843F4007350
:10293000136000230363202280F83D2080F83E309E
:10294000FFF770FFCEE7836C0268DBB21361036DA3
:1029500001330365C6E70268136843F480731360AC
:10296000036D01330365BDE7426A036812781A619B
:10297000436A01334362438D9BB2013B9BB2438563
:10298000B0E7FFF7A1FCADE710B590F83D30DBB242
:1029900090F83E20D2B2C46A018D00293BD1212B90
:1029A00002D0402A42D010BD082C04D0202C02D0E6
:1029B00014F5803F19D10268536823F4E063536033
:1029C0000268136843F40073136000230363202339
:1029D00080F83D3090F83E30DBB2402B15D000231C
:1029E00080F83E30FFF74FFEDDE70268536823F4BE
:1029F000E063536011230363002380F83E302023FB
:102A000080F83D30FFF73FFECDE7002380F83E30F1
:102A1000FFF708FFC7E7212BC3D1438D9BB243B912
:102A20000268536823F480635360BCE7222BBAD159
:102A3000F3E790F83E30DBB2402B0CD0426A0368DB
:102A400012781A61436A01334362438D9BB2013BA2
:102A50009BB24385A7E7FFF735FFA4E7704708B5AA
:102A6000C26A438D9BB2042B14D0438D9BB2032BBF
:102A700022D0438D9BB2022B39D003681A69436A76
:102A80001A70436A01334362438D9BB2013B9BB290
:102A9000438510E00268536823F480635360036841
:102AA0001A69436A1A70436A01334362438D9BB2C9
:102AB000013B9BB2438508BD01684B6823F48063EA
:102AC0004B60042A06D0022A04D00268136823F45B
:102AD0008063136003681A69436A1A70436A01339A
:102AE0004362438D9BB2013B9BB24385E3E7531E98
:102AF0000F2B42D8DFE803F0083B413B4141414105
:102B0000414141414141410801680B6823F4806320
:102B10000B6003681969436A1970416A4B1C436270
:102B2000438D9BB2013B9BB2438503681B694B708D
:102B3000436A01334362438D9BB2013B9BB24385A1
:102B400001684B6823F440734B60202380F83D30CC
:102B500090F83E30DBB2402B15D0002380F83E3099
:102B6000082A17D0202A15D01223036314E0016825
:102B70000B6843F480630B60CBE701680B6843F498
:102B800000730B60C5E7002380F83E300363FFF756
:102B900065FF90E700230363FFF776FD8BE770473F
:102BA00038B590F83D30DBB2222B00D038BD04465A
:102BB000C56A438D9BB2032B15D903681A69436A12
:102BC0001A70436A01334362438D9BB2013B9BB24F
:102BD0004385438D9BB2032BE8D10268536823F4ED
:102BE00080635360E2E7C26A022A01D0012B05D953
:102BF0002268536823F480635360D7E7FFF710FD22
:102C0000002835D12268136823F48063136022689A
:102C1000536823F4E063536023681A69636A1A7087
:102C2000636A01336362638D9BB2013B9BB2638530
:102C3000202384F83D3094F83E30DBB2402B09D09D
:102C4000002384F83E30082D0CD0202D0AD012230A
:102C5000236309E0002384F83E3023632046FFF716
:102C6000FDFEA3E7002323632046FFF70DFD9DE74C
:102C70002268536823F4E063536023681A69636A27
:102C80001A70636A01336362638D9BB2013B9BB22E
:102C90006385202384F83D30002384F83E302046AD
:102CA000FFF77DFF82E7704700B583B000230193F3
:102CB000806B90F83D20D2B2324B1B68DB08324962
:102CC000A1FB03131B0A03EB8303C3EBC3030193B1
:102CD000019B43B1019B013B019303681B6813F403
:102CE000007FF5D103E0036C43F020030364436BE2
:102CF0000BB10021D963836B0BB10021D96301684B
:102D00000B6823F480630B6000234385436B0BB196
:102D100000211965836B0BB10021196501680B68EF
:102D200023F001030B6090F83D30DBB2602B0ED036
:102D300002F02802282A14D0202380F83D300023F6
:102D400080F83E30FFF72BFF03B05DF804FB202333
:102D500080F83D30002380F83E300364FFF7A3FF86
:102D6000F2E70268136843F0010313600268136816
:102D700043F48063136000230363282380F83D300D
:102D8000E0E700BF1400002089B5F81410B5044630
:102D900090F83D30DBB290F83E20D2B2102A36D007
:102DA000402A34D003F02802282A38D022685268FA
:102DB00012F4006F07D1602B05D0202384F83D303A
:102DC000002384F83E300023236323685A6812F4FA
:102DD000006F48D05A6822F400625A60626B92F821
:102DE0003530DBB2012B20D0444B1365606BFFF70D
:102DF000AFF9002849D02268136823F0010313605B
:102E0000202384F83D30606B036D98473DE0222B12
:102E1000C8D121680A6822F400620A60C2E7002370
:102E20002363282384F83D30CFE7A36B334A1A6528
:102E3000A06BFFF78DF940B323685A6912F0400F79
:102E400005D01A69636A1A70636A01336362226883
:102E5000136823F001031360202384F83D30A06B36
:102E6000036D984711E094F83D20D2B2602A1FD03C
:102E70005A6912F0400F05D01A69636A1A70636AC2
:102E8000013363622046FFF78AFE236C13F00F0FB5
:102E900004D02268536823F4E063536094F83D3013
:102EA000DBB2226C12F0040F01D0282B18D010BD19
:102EB000202284F83D20002222645A6912F0400F3B
:102EC00005D01A69636A1A70636A01336362226803
:102ED000136823F0010313602046FFF7E4FED4E7F4
:102EE000074BE36200232363202284F83D2084F80B
:102EF0003E302046FFF745FCD9E700BFA92C00086B
:102F00000000FFFF30B583B0044690F83D50EDB2AD
:102F10000268536823F4E06353600023019303685D
:102F20005A6901921A6842F001021A60019B026814
:102F3000136823F48063136003685A6812F4006F07
:102F400038D0222D21D02A2D1FD0426B1268526812
:102F500092B24285428D92B21AB1026C42F00402E2
:102F600002645A6822F400625A60606BFFF703F94A
:102F700001281FD0636B444A1A65606BFFF7E8F8BD
:102F8000C0B1606B036D984714E0A26B1268526881
:102F900092B26285628D92B21AB1226C42F0040242
:102FA00022645A6822F400625A60A06BFFF7E3F8CB
:102FB000012842D1638D9BB233B323685A6912F062
:102FC000040F0AD01A69636A1A70636A0133636274
:102FD000638D9BB2013B9BB2638523685A6912F0F3
:102FE000400F0AD01A69636A1A70636A0133636218
:102FF000638D9BB2013B9BB26385638D9BB21BB11A
:10300000236C43F004032364236C13BB2A2D25D0C7
:1030100094F83D30DBB2282B29D0236B222B01D032
:10302000222D19D100232363202284F83D2084F827
:103030003E302046FFF750FB0EE0A36B124A1A65A4
:10304000A06BFFF785F80028B4D0A06B036D9847FC
:10305000B0E72046FFF79AFE03B030BD002323639C
:10306000282384F83D302046FFF736FBD0E7074B96
:10307000E36200232363202284F83D2084F83E305D
:103080002046FFF77EFBE7E7A92C00080000FFFFC2
:10309000F8B5044602685568C66A90F83E30DBB25F
:1030A00090F83D10C8B2102B13D0402B11D0236CD8
:1030B000002B7AD05369002113F0020F78D015F459
:1030C000007F75D0236C03B191692046FFF72CFB7C
:1030D000F8BDD2F818C0516911F0010705D1B6F555
:1030E0002A0FF5D0B6F12A4FF2D017B115F4007FB0
:1030F00029D111F0080F02D015F4007F2AD111F068
:10310000020F02D015F4007F28D11CF0040F31D03B
:10311000526812F4006FDBD111F0800F05D015F466
:10312000806F02D011F0040F1CD011F0040FCFD02B
:1031300015F4007FCCD0212818D0402BC8D12046D0
:10314000FFF7C0FBC4E72046FFF78EFA2046FFF7E3
:10315000C3F8BDE72046FFF713F9B9E72046FFF7AC
:1031600025F9B5E72046FFF70FFCB1E72046FFF74A
:103170005AFBADE7536813F4006FA9D111F0400F6B
:1031800005D015F4806F02D011F0040F09D011F0B2
:10319000040F9DD015F4007F9AD02046FFF75FFC06
:1031A00096E72046FFF7FCFC92E79169536983E7B5
:1031B00013F0100F02D015F4007F18D121281AD077
:1031C000292818D013F0400F05D015F4806F02D0D5
:1031D00013F0040F28D013F0040F3FF479AF15F467
:1031E000007F3FF475AF2046FFF70AFA70E72046EC
:1031F000FFF788FE6CE713F0800F05D015F4806FA1
:1032000002D013F0040F0BD013F0040F3FF460AFA3
:1032100015F4007F3FF45CAF2046FFF7E1F957E774
:103220002046FFF733FA53E72046FFF756FA4FE7F9
:10323000F8B5044603685D695F6890F83E20D2B235
:1032400015F4807606D017F4807603D06FF4807181
:103250005961012615F4007F08D017F4807F05D04E
:1032600046F0020623686FF40071596115F4806F0F
:1032700019D017F4807F16D0638D99B294F83D3041
:10328000DBB2206B202A1BD023686FF48061596168
:1032900046F00406102A01D0402A04D1226813689F
:1032A00043F40073136015F4006F17D017F4807F98
:1032B00014D046F0080623686FF400625A610EE0ED
:1032C0000029E1D1212B05D0292B03D0282BDBD1DC
:1032D0002128D9D12046FFF755FAE4E72EB1236C17
:1032E000334323642046FFF751FDF8BD70470000CB
:1032F00010B584B0044602685168936803F0410039
:10330000012867D013F0020F02D011F0800F68D1AE
:1033100013F4B07F68D011F0200F65D013F0400F88
:103320000FD094F85100C0B203285FD0606D40F018
:103330000400606500200090D068009090680090C4
:10334000009813F0200F0CD0606D40F00100606514
:103350000020029090680290106820F040001060F9
:10336000029A13F4807F09D0636D43F0080363650C
:103370000023039323689B680393039B636D002BD7
:1033800032D02268536823F0E0035360012384F8AD
:10339000513011F0030F31D02268536823F003033A
:1033A0005360E36C4BB1174A1A65E06CFEF7D0FE30
:1033B00018B1636D43F040036365A36CA3B1114A78
:1033C0001A65A06CFEF7C4FE70B1636D43F0400354
:1033D000636509E011F0400F94D0236C20469847B4
:1033E00002E0636C2046984704B010BD00230193AF
:1033F000D368019393680193019BF5E72046FFF79B
:1034000075FFF1E70934000808B5806B0023C38716
:10341000C386FFF76BFF08BD30B4026A036A23F06E
:10342000010303624568836923F073030C681C433E
:1034300022F002028B6813430B4A904206D045608B
:1034400084614A684263036230BC704723F008031A
:10345000CA681A4322F0040325F440754A692A43D6
:103460008D691543EBE700BF0000014030B4036AEB
:10347000026A22F4807202624468C26922F0730216
:103480000D68154323F400738A6843EA02230D4A4A
:10349000904206D04460C5614A68C263036230BC92
:1034A000704723F40063CA6843EA022323F480636D
:1034B00024F440544A6944EA02148A6944EA021432
:1034C000E8E700BF0000014030B4036A026A22F45A
:1034D000805202624468C26922F4E6420D6842EA00
:1034E000052223F400538D6843EA0533074DA842B3
:1034F00006D04460C2614A680264036230BC70470F
:1035000024F480444D6944EA8514F2E70000014048
:1035100010B4036A046A24F001040462846924F08C
:10352000F00C4CEA021223F00A030B43826103629F
:103530005DF8044B704710B4036A046A24F0100469
:103540000462846924F4704C4CEA023223F0A00334
:1035500043EA0113826103625DF8044B704783689C
:1035600023F070030B4343F00703836070470000B0
:1035700090F83D30DBB2012B2FD1022380F83D3093
:103580000268D36843F00103D3600368154A93428D
:1035900018D0B3F1804F15D0A2F57C42934211D0E0
:1035A00002F5806293420DD002F58062934209D009
:1035B00002F59A32934205D01A6842F001021A606D
:1035C000002070479A6802F00702062A07D01A689E
:1035D00042F001021A60002070470120704700206D
:1035E000704700BF00000140704770477047704748
:1035F000704770B504460368DE681D6915F0020F58
:1036000010D016F0020F0DD06FF002021A610123E4
:10361000037703689B6913F0030F5ED0FFF7E6FFA3
:103620000023237715F0040F12D016F0040F0FD0EB
:1036300023686FF004021A610223237723689B69D1
:1036400013F4407F4FD02046FFF7D0FF00232377AD
:1036500015F0080F12D016F0080F0FD023686FF086
:1036600008021A61042323772368DB6913F0030F30
:1036700040D02046FFF7BAFF0023237715F0100F44
:1036800012D016F0100F0FD023686FF010021A61DD
:10369000082323772368DB6913F4407F31D0204669
:1036A000FFF7A4FF0023237715F0010F02D016F0D7
:1036B000010F2DD115F0800F02D016F0800F2FD101
:1036C00015F0400F02D016F0400F31D115F0200F49
:1036D00002D016F0200F33D170BDFFF786FF2046D1
:1036E000FFF785FF9CE72046FFF77FFF2046FFF7A7
:1036F0007EFFABE72046FFF778FF2046FFF777FF16
:10370000BAE72046FFF771FF2046FFF770FFC9E7D1
:1037100023686FF001021A612046FDF78DFAC9E7B0
:1037200023686FF080021A61204600F0F0FAC7E7C4
:1037300023686FF040021A612046FFF759FFC5E782
:1037400023686FF020021A61204600F0DFFAC3E719
:103750000368294A90420ED0B0F1804F0BD0A2F5F9
:103760007C42904207D002F58062904203D002F57D
:103770008062904203D123F070034A6813431E4ACB
:1037800090421AD0B0F1804F17D0A2F57C429042FF
:1037900013D002F5806290420FD002F58062904211
:1037A0000BD002F59A32904207D002F58062904227
:1037B00003D002F58062904203D123F44073CA68BB
:1037C000134323F080034A69134303608B68C36289
:1037D0000B688362084B98420AD001234361036956
:1037E00013F0010F03D0036923F001030361704755
:1037F0000B690363F1E700BF0000014040B310B55F
:10380000044690F83D30F3B1022384F83D30214660
:1038100051F8040BFFF79CFF012384F8463084F82D
:103820003E3084F83F3084F8403084F8413084F8EA
:10383000423084F8433084F8443084F8453084F8CA
:103840003D30002010BD80F83C30FDF7E3FADBE7A7
:103850000120704740B310B5044690F83D30F3B1F5
:10386000022384F83D30214651F8040BFFF770FF26
:10387000012384F8463084F83E3084F83F3084F8E1
:10388000403084F8413084F8423084F8433084F882
:10389000443084F8453084F83D30002010BD80F875
:1038A0003C30FFF7A1FEDBE70120704730B4036A2C
:1038B000026A22F0100202624468826922F4E6423F
:1038C0000D6842EA052223F020038D6843EA0513C0
:1038D0000C4DA84206D0446082614A68826303624C
:1038E00030BC704723F08003CD6843EA051323F012
:1038F000400324F440644D6944EA85048D6944EA38
:103900008504E8E70000014038B590F83C30012B11
:1039100066D004460D46012380F83C300C2A5AD864
:10392000DFE802F0075959591B595959305959596B
:1039300044000068FFF770FD2268936943F00803B4
:1039400093612268936923F0040393612268936969
:1039500029690B43936100203EE00068FFF7A6FF52
:103960002268936943F4006393612268936923F4A6
:103970008063936122689369296943EA0123936113
:10398000002029E00068FFF771FD2268D36943F049
:103990000803D3612268D36923F00403D36122684A
:1039A000D36929690B43D361002015E00068FFF754
:1039B0008BFD2268D36943F40063D3612268D36925
:1039C00023F48063D3612268D369296943EA012320
:1039D000D361002000E00120002384F83C3038BD92
:1039E0000220FCE710B4846824F47F4C42EA0322EE
:1039F0000A4342EA0C0282605DF8044B704790F87B
:103A00003C30012B78D010B50446012380F83C30BF
:103A1000022380F83D300268936823F47F4323F04B
:103A2000770393600B68602B4CD029D8402B54D07F
:103A30000CD9502B22D1CA6849680068FFF768FD8D
:103A400050212068FFF78BFD002005E0202B0DD0D2
:103A500009D9302B0AD00120012384F83D300023FE
:103A600084F83C3010BD0BB1102B05D119462068ED
:103A7000FFF775FD0020EFE70120EDE70120EBE700
:103A8000B3F5805F34D0B3F5005F0CD1CB684A68E2
:103A900089680068FFF7A6FF2268936843F48043B3
:103AA00093600020D8E7702B24D1CB684A688968DE
:103AB0000068FFF797FF2268936843F077039360ED
:103AC0000020C9E7CA6849680068FFF734FD602133
:103AD0002068FFF744FD0020BEE7CA684968006817
:103AE000FFF716FD40212068FFF739FD0020B3E7FE
:103AF0000020B1E70120AFE70220704701F01F016D
:103B00004FF0010C0CFA01FC036A23EA0C03036278
:103B1000036A8A40134303627047000010B50446ED
:103B20000846002932D194F83E30DBB2013B18BF81
:103B30000123002B63D1002841D1022384F83E30B9
:103B4000012201462068FFF7D9FF23682E4A9342DD
:103B500045D023682C4A934246D0B3F1804F43D0DE
:103B6000A2F57C4293423FD002F5806293423BD063
:103B700002F58062934237D002F59A32934233D0F5
:103B80001A6842F001021A60002037E0042908D0C8
:103B900008290DD094F84130DBB2013B18BF012356
:103BA000C7E794F83F30DBB2013B18BF0123C0E701
:103BB00094F84030DBB2013B18BF0123B9E7042879
:103BC00005D0082807D0022384F84130B8E7022343
:103BD00084F83F30B4E7022384F84030B0E75A6CF1
:103BE00042F400425A64B4E79A6802F00702062AD7
:103BF00007D01A6842F001021A60002010BD0120AF
:103C0000FCE70020FAE700BF0000014038B5044699
:103C10000D4600220068FFF771FF23681B4A93429C
:103C200014D02368196A41F21112114208D1196A9D
:103C300040F24442114203D11A6822F001021A6094
:103C40009DB9012384F83E30002038BD196A41F245
:103C500011121142E5D1196A40F244421142E0D1F9
:103C60005A6C22F400425A64DBE7042D05D0082D7B
:103C700007D0012384F84130E6E7012384F83F3080
:103C8000E2E7012384F84030DEE700BF0000014096
:103C900090F83C20012A35D010B40346012280F868
:103CA0003C20022280F83D2002685068946820F091
:103CB000700C086840EA0C0050601A681248824292
:103CC00012D0B2F1804F0FD0A0F57C4082420BD0D1
:103CD00000F58060824207D000F58060824203D008
:103CE00000F59A30824204D124F0800449682143CF
:103CF0009160012283F83D20002083F83C005DF8AC
:103D0000044B704702207047000001407047704725
:103D1000026802F10C0353E8003F23F490730C3265
:103D200042E800310029F3D1026802F1140353E89C
:103D3000003F23F00103143242E800310029F3D19F
:103D4000036B012B05D0202380F84230002303634E
:103D50007047026802F10C0353E8003F23F01003A0
:103D60000C3242E800310029F3D1ECE790F8413001
:103D7000DBB2212B01D0022070478368B3F5805F4E
:103D800017D0036A5A1C02621A7803685A60C38CFF
:103D90009BB2013B9BB2C3844BB90268D36823F04A
:103DA0008003D3600268D36843F04003D3600020EF
:103DB00070470369002BE4D1036A1B880268C3F3D0
:103DC00008035360036A02330362E0E710B5044658
:103DD0000268136923F44053C1680B43136183687D
:103DE00002691A4343691A43C3691A430168CB68DD
:103DF00023F4164323F00C031343CB60026853698A
:103E000023F4407381690B4353610368314A934241
:103E100006D002F58062934202D0FDF707FF01E071
:103E2000FDF714FFE369B3F5004F29D00021031813
:103E300049411B1841F10001C90041EA5371DB00FF
:103E4000181863684FEA83024FEA937341F1000147
:103E5000FCF792FE204AA2FB00314909642303FBD0
:103E600011031B013233A2FB03235B0903F0F002B1
:103E700002EB011203F00F03216813448B6010BDA5
:103E80000023021843EB0301121841F10001C9009D
:103E900041EA5271D200101841F100016268921893
:103EA0005B41FCF769FE0C4AA2FB0031490964231F
:103EB00003FB1103DB003233A2FB03235B095A002F
:103EC00002F4F87202EB011203F0070321681344B5
:103ED0008B60D4E7001001401F85EB512DE9F043C2
:103EE00083B005460E4617469946DDF828802B68B4
:103EF0001C6836EA04040CBF01240024BC4228D10B
:103F0000B8F1FF3FF3D0FEF7D9F9A0EB0900404527
:103F100023D8B8F1000F22D02B68DA6812F0040F12
:103F2000E5D0802EE3D0402EE1D01A6812F0080FC1
:103F3000DDD0002401941A6801925B680193019B13
:103F40002846FFF7E5FE08236B6485F84040012012
:103F500000E0002003B0BDE8F0830320FAE703206F
:103F6000F8E760B310B5044690F8413013B324234A
:103F700084F841302268D36823F40053D36020468C
:103F8000FFF724FF2268136923F49043136122682A
:103F9000536923F02A0353612268D36843F4005322
:103FA000D36000206064202384F8413084F84230DC
:103FB000606310BD80F84030FDF784F8D7E701203A
:103FC00070472DE9F04182B01E4690F84130DBB2D7
:103FD000202B56D104460D469046002955D00AB9EB
:103FE00001204FE000234364212380F84130FEF795
:103FF00065F90746A4F82480A4F82680A368B3F5E1
:10400000805F02D04FF0000814E023692BB34FF01B
:1040100000080FE0202384F84130032032E038F814
:10402000023B2268C3F308035360E28C92B2013A68
:1040300092B2E284E38C9BB293B100963B4600229D
:1040400080212046FFF74AFF0028E3D1002DE6D06B
:1040500015F8012B23685A60E7E7A8460025E9E731
:1040600000963B46002240212046FFF737FF18B953
:10407000202384F8413005E0202384F841300320D8
:1040800000E0022002B0BDE8F0810120FAE77047AD
:1040900008B50168CA6822F04002CA60202280F890
:1040A0004120FFF7F4FF002008BD7047704708B5B6
:1040B000806B0023C385C384FFF7F8FF08BD7047FA
:1040C00090F84230DBB2222B69D18368B3F5805F70
:1040D0004FD0826AB3F5805F04D0002B56D10369BC
:1040E000002B53D103685B681370836A01338362CA
:1040F000C38D9BB2013B9BB2C385002B51D100B550
:1041000083B00268D36823F02003D3600268D368C9
:1041100023F48073D3600268536923F00103536171
:10412000202380F8423000234363036B012B33D1FB
:1041300000230363026802F10C0353E8003F23F0FD
:1041400010030C3242E800310029F3D103681A68E9
:1041500012F0100F06D0002201921A6801925B68DB
:104160000193019B818DFFF7AAFF002003B05DF84A
:1041700004FB0269002AACD1826A03685B68C3F35E
:1041800008031380836A02338362B1E703685B68C4
:1041900003F07F031370A8E7FFF787FFE5E702202E
:1041A000704700207047000010B582B004460268D6
:1041B0001368D068516913F00F0F09D113F0200F65
:1041C0000CD010F0200F09D02046FFF779FF16E041
:1041D00011F0010115D110F4907F12D1216B01294A
:1041E00079D013F0800F03D010F0800F40F01481CD
:1041F00013F0400F03D010F0400F40F0118102B0D7
:1042000010BD13F0010F06D010F4807F03D0626C54
:1042100042F00102626413F0040F04D019B1626C21
:1042200042F00202626413F0020F04D019B1626C12
:1042300042F00402626413F0080F07D010F0200F60
:1042400000D119B1626C42F008026264626C002A0B
:10425000D5D013F0200F02D010F0200F29D1236801
:104260005B6903F04003626C12F0080F00D163B386
:104270002046FFF74DFD23685B6913F0400F20D007
:10428000226802F1140353E8003F23F04003143284
:1042900042E800310029F3D1E36B73B1624A1A6539
:1042A000E06BFDF755FF0028A9D0E06B036D984740
:1042B000A5E72046FFF704FFD1E72046FFF7F6FE0B
:1042C0009DE72046FFF7F2FE99E72046FFF7EEFE56
:1042D0000023636493E713F0100F82D010F0100FE7
:1042E0003FF47FAF00230193136801935368019358
:1042F000019B536913F0400F52D0E26B13685B6867
:104300009BB2002B3FF47BAFA18D99427FF677AF34
:10431000E385D369B3F5807F37D0226802F10C03BF
:1043200053E8003F23F480730C3242E80031002947
:10433000F3D1226802F1140353E8003F23F0010394
:10434000143242E800310029F3D1226802F114034B
:1043500053E8003F23F04003143242E800310029C3
:10436000F3D1202384F8423000232363226802F132
:104370000C0353E8003F23F010030C3242E80031F5
:104380000029F3D1E06BFDF799FE02236363A18D51
:10439000E38D9BB2C91A89B22046FFF790FE2EE743
:1043A000A18DE38D9BB2C91A89B2E38D9BB2002B1C
:1043B0003FF425AF00293FF422AF226802F10C033D
:1043C00053E8003F23F490730C3242E80030002899
:1043D000F3D1226802F1140353E8003F23F00103F4
:1043E000143242E800300028F3D1202384F8423010
:1043F00000232363226802F10C0353E8003F23F0FB
:1044000010030C3242E800300028F3D1022363632A
:104410002046FFF754FEF2E62046FFF7A7FCEEE643
:104420002046FFF735FEEAE6AF400008034AD2F81F
:10443000883043F47003C2F88830704700ED00E024
:1044400043684B609A688A605160996008610368AC
:104450000133036070470369416882688A6041687C
:1044600051605A68824206D0002202611A68013AFD
:104470001A601868704782685A60F5E7084B1B6835
:104480001B6823B9074B4FF0FF321A607047044B8B
:104490001B68DB68DB685A68024B1A60704700BF14
:1044A0002C05002010050020F8B53A4B1B68002BA6
:1044B00069D1394B1D6801351D60C5B9374B1B6883
:1044C0001B6843B14FF0500383F31188BFF36F8F24
:1044D000BFF34F8FFEE7314A1168314B1868106007
:1044E0001960304A136801331360FFF7C7FF2E4B82
:1044F0001B68AB423DD900272C4B1B68DB6A03EBE2
:1045000083039A002A4B9B58012B00D90127294B82
:104510001B68002B3CD001273AE001271F4B1B688A
:104520001B6843B31D4B1B68DB68DC6863689D42F6
:1045300026D3261D3046FFF78EFFA36A1BB104F178
:104540001800FFF788FFE36A01229A401A490868B9
:1045500002430A6003EB83039A0031461448104477
:10456000FFF76EFFE26A114B1B68DB6A9A42D4D2F6
:10457000D4E70027D2E70C4B4FF0FF321A60BBE7BD
:10458000094A1360B8E70D4A136801331360002726
:104590003846F8BD0C050020240500202C0500201D
:1045A000280500201405002010050020BC0500206F
:1045B0003005002018050020200500201C050020E3
:1045C000224B1B681BB1224B01221A607047204B03
:1045D00000221A601F4B1B68B3FA83F3DBB2C3F1EE
:1045E0001F0303EB83018A001B498A5842B94FF02D
:1045F000500383F31188BFF36F8FBFF34F8FFEE734
:10460000154803EB83018A000244516849685160F0
:1046100003EB830C4FEA8C020832024491420DD026
:1046200003EB83039A000C4B13445B68DA680B4B73
:104630001A601B6850330A4A136070474868624624
:104640009100054A0A445060EAE700BF0C050020CB
:10465000180500202005002030050020BC050020A2
:104660001800002000000000000000000000000012
:10467000074B19680868B0E8F04F80F30988BFF36A
:104680006F8F4FF0000080F311887047AFF3008008
:10469000BC05002000000000000000000000000039
:1046A000EFF30980BFF36F8F154B1A681EF0100FE0
:1046B00008BF20ED108A20E9F04F10602DE90900B5
:1046C0004FF0500080F31188BFF34F8FBFF36F8F0F
:1046D000FFF776FF4FF0000080F3118809BC1968DE
:1046E0000868B0E8F04F1EF0100F08BFB0EC108A59
:1046F00080F30988BFF36F8F704700BFAFF300806E
:10470000BC05002008B54FF0500383F31188BFF3B8
:104710006F8FBFF34F8FFFF7C7FE28B14FF0E02335
:104720004FF08052C3F8042D002383F3118808BD95
:10473000DFF834D0FFF77AFE0C480D490D4A00230C
:1047400002E0D458C4500433C4188C42F9D30A4A46
:104750000A4C002301E013600432A242FBD300F0B4
:1047600011F8FCF7C9FA7047008001200000002012
:10477000E001002044780008E0010020100700203C
:10478000FEE7000070B50D4D0D4C641BA410002613
:10479000A64209D10B4D0C4C02F074FE641BA41010
:1047A0000026A64205D170BD55F8043B9847013656
:1047B000EEE755F8043B98470136F2E73C780008ED
:1047C0003C7800083C780008407800082DE9F04F5C
:1047D00085B057EC106BDDE90E9B002F0C46904620
:1047E0001946B8BF32463B462BF0200ABBBF07F143
:1047F00000431F4600232D23B8BF1646BAF1460FCB
:104800000B7005D0BAF1450F00D10134022100E050
:10481000032103AB019302AB009347EC106B4B46B3
:10482000224601F055F8BBF1670F054619D118F083
:10483000010F0ED005EB0408002200233046394654
:10484000FCF72AF908B1CDF80C803022039B4345D0
:1048500021D3039B109A5B1B2846136005B0BDE86B
:10486000F08FBBF1470FE2D0BAF1460F00EB04081E
:10487000E2D10378302B0AD100220023304639469A
:10488000FCF70AF918B9C4F10104C9F80040D9F8D5
:1048900000309844D0E7591C03911A70D6E7F7B559
:1048A0000029BABF49422D232B23092902704370E6
:1048B00029DD0DF107031D460A271A46B1FBF7F65D
:1048C00007FB1614303402F8014C0C46632C03F13C
:1048D000FF333146F1DC3031941E03F8011C411CDA
:1048E0002346AB420AD30DF109039B1AAC4288BFA1
:1048F000002302330344181A03B0F0BD13F8016B10
:1049000001F8016FEDE7302330318370C170031D72
:10491000F1E700002DE9F04F8DB00C46DDF858802E
:1049200016461F46054601F08BFE036804931846A1
:10493000FBF786FC00230A93D8F800300590073374
:1049400023F0070303F1080294F818A0D4F800B08C
:10495000C8F80020D3E9008929F000430793CDF877
:104960001880C4E91289DDE90601A04B4FF0FF323F
:10497000FCF7C4F870BBDDE906019C4B4FF0FF3239
:10498000FCF79EF830BB0022002340464946FCF766
:104990008DF810B12D2384F84330954A954BBAF128
:1049A000470F94BF90469846032323612BF00403DE
:1049B00023604FF00009009733460BAA2146284692
:1049C00000F0C2FB013040F096804FF0FF300DB098
:1049D000BDE8F08F42464B4640464946FCF78EF80C
:1049E00040B14B46002BBCBF2D2384F84330824A94
:1049F000824BD4E763685A1C26D1062363604BF4CC
:104A000080620023226003930AABCDE901A309ABC6
:104A10000093616849EC108B0DF123032846FFF7E2
:104A2000D5FEBAF1670F0999804615D1CB1C3BDB47
:104A30006368994238DC0A9B994255DB23682161FF
:104A4000D80745D54B1C42E00AF0DF02472AD6D1F1
:104A5000002BD4D10123D1E7BAF1470F07D1C81CED
:104A600025DB63688B4222DB4FF0670AE3E7BAF18C
:104A7000650F1FD80139524604F150000991FFF724
:104A80000EFF0A9A1318012A8146236102DC22686C
:104A9000D20701D5013323619DF82330002B8AD042
:104AA0002D2384F8433086E74FF0650AE2E74FF0A4
:104AB000450ADFE7BAF1660FBDD1002963680BDD57
:104AC000216113B92268D00702D501330B44236159
:104AD000A1654FF00009DFE713B92268D20701D5BD
:104AE0000233F4E70123F2E70029D4BFC1F1020247
:104AF00001221344EBE723685A0507D42369424691
:104B000031462846B84701302BD15EE7BAF1650F30
:104B100040F2DC80D4E9120100220023FBF7BCFF45
:104B2000002833D0364A012331462846B8470130A1
:104B30003FF44BAFDDE90938434502DB2368D80772
:104B40000FD5DDE9042331462846B84701303FF44C
:104B50003CAF4FF0000908F1FF3804F11A0AC845CC
:104B600009DC23689B0700F10281E0680B9B9842F7
:104B7000B8BF18462BE70123524631462846B847AE
:104B800001303FF422AF09F10109E8E7099B002B4E
:104B900038DC1B4A012331462846B84701303FF430
:104BA00014AFDDE9093959EA030302D12368D907B3
:104BB000D7D5DDE9042331462846B84701303FF414
:104BC00004AF4FF0000A04F11A0B099B5B425345F6
:104BD00001DC4B4693E701235A4631462846B84745
:104BE00001303FF4F2AE0AF1010AEEE7FFFFEF7F7A
:104BF000C0740008C4740008C8740008CC740008AD
:104C0000D0740008A36DDDF828A05345A8BF534613
:104C1000002B994636DC4FF0000B29EAE97904F1C4
:104C20001A02A36D0693A3EB09035B4531DC099BD4
:104C30009A453ADC2368DA0737D4099BAAEB0309C3
:104C4000069BAAEB03039945A8BF9946B9F1000F4B
:104C500033DC4FF0000829EAE97904F11A0B099BCB
:104C6000AAEB0303A3EB090343457FF77AAF0123C4
:104C70005A4631462846B84701303FF4A6AE08F1FF
:104C80000108ECE7424631462846B8470130C2D118
:104C90009BE60123314628460692B84701303FF48F
:104CA00094AE069A0BF1010BBBE7DDE90423314614
:104CB0002846B8470130C0D187E6069A4B464244A1
:104CC00031462846B8470130C3D17EE6DDF828A03A
:104CD000BAF1010F01DCDB0736D50123424631462C
:104CE0002846B84701303FF470AEDDE90423314671
:104CF0002846B84701303FF468AED4E912010022DB
:104D000000230AF1FF3AFBF7C7FEC0B9534608F18A
:104D1000010231462846B84701300CD155E601233F
:104D20005A4631462846B84701303FF44EAE08F1A6
:104D30000108D045F3DB4B4604F15002E0E64FF0AA
:104D4000000804F11A0BF4E701234246E1E70123CE
:104D50004A4631462846B84701303FF436AE08F19E
:104D60000108E3680B995B1A4345F0DCFDE64FF060
:104D7000000804F11909F4E70FB407B5064904ABBC
:104D8000086853F8042B8168019300F031F803B0F0
:104D90005DF804EB04B07047180000209368013BF5
:104DA000002B10B4936008DA9469A34201DB0A294E
:104DB00003D15DF8044B00F033B91368581C106040
:104DC000197008465DF8044B7047F8B506460F4663
:104DD0001446D518AC4201D1002007E014F8011B9D
:104DE0003A463046FFF7DAFF431CF3D1F8BD000026
:104DF0002DE9F04F0D469DB014469846064618B171
:104E0000036A0BB900F080FC6B6ED90705D4AB893F
:104E10009A0502D4A86D01F010FCAB891B0701D5DF
:104E20002B699BB92946304600F038F970B16B6E9A
:104E3000DC0704D54FF0FF301DB0BDE8F08FAB8923
:104E40009805F7D4A86D01F0F9FBF3E70023099367
:104E500020238DF82930CDF80C803023DFF8AC8189
:104E60008DF82A304FF0010923469A4613F8012B9A
:104E70000AB1252AF9D1BAEB040B0BD05B462246C6
:104E800029463046FFF7A1FF013000F0A780099ABC
:104E90005A4409929AF80030002B00F09F800023BA
:104EA0004FF0FF32CDE905230AF1010A049307937D
:104EB0008DF853301A935446052214F8011B5348B9
:104EC000FBF76EF9049AD8B9D10644BF20238DF8B8
:104ED0005330130744BF2B238DF853309AF800301A
:104EE0002A2B15D0079A544600204FF00A0C214671
:104EF00011F8013B303B092B4BD9B0B1079214E0BC
:104F0000A0EB080309FA03F313430493A246D2E784
:104F1000039B191D1B680391002BBBBF5B4242F032
:104F2000020207930793B8BF049223782E2B0AD16D
:104F300063782A2B32D1039B1A1D1B68039243EA24
:104F4000E37302340593DFF8D4A02178032250469E
:104F5000FBF726F938B1049BA0EB0A0040228240FF
:104F600013430134049314F8011B29488DF82810C9
:104F70000622FBF715F900283FD0264B1BBB039BED
:104F8000073323F0070308330393099B3B4409933A
:104F90006AE70CFB02320C460120A8E7002301342B
:104FA000059319464FF00A0C204610F8012B303AB1
:104FB000092A03D9002BC6D00591C4E70CFB0121B7
:104FC00004460123F0E703AB00932A46124B04A9E1
:104FD0003046FFF79FFC0746781CD6D16B6ED90789
:104FE00005D4AB899A0502D4A86D01F027FBAB89E3
:104FF0005B063FF51FAF09981EE703AB00932A46F7
:10500000054B04A9304600F00DF9E4E7D27400081E
:10501000DC74000815490008CB4D0008D87400085E
:10502000F8B50E461446054618B1036A0BB900F0F0
:105030006BFBA369A360A3891A0701D5236943B950
:105040002146284600F02AF818B14FF0FF373846BD
:10505000F8BD23682269981A6369F6B2834237461D
:1050600005DC2146284600F08DFA0028EDD1A36822
:10507000013BA36023685A1C22601E706269431CB6
:105080009A4204D0A389DB07E1D50A2EDFD121465D
:10509000284600F077FA0028D9D0D6E738B5294B52
:1050A000054618680C4618B1036A0BB900F02CFBD2
:1050B000B4F90C30190722D4DA0607D409222A6081
:1050C00043F04003A3814FF0FF3033E0580712D57F
:1050D000616B41B104F14403994202D0284601F0CA
:1050E00061FA00236363A38923F02403A3810023CF
:1050F000636023692360A38943F00803A3812369C4
:105100004BB9A38903F42073B3F5007F03D0214684
:10511000284601F0BFFAB4F90C3013F001020AD0AE
:105120000022A26062695242A261226942B913F070
:105130008000C5D138BD990758BF6269A260F4E705
:105140000020F7E7180000202DE9F04716469846A2
:105150008A680B69DDF820909342B8BF134633602C
:1051600091F8432007460C460AB1013333602368A7
:10517000990642BF336802333360256815F006058F
:1051800006D104F1190AE36832689B1AAB4226DCA7
:1051900094F843302268003B18BF012392062BD4B9
:1051A00004F1430241463846C84701301ED0236807
:1051B000226903F00603042B02BFE5683368ED1A89
:1051C000A3680CBF25EAE57500259342C4BF9B1A6E
:1051D000ED1800261A34B5421AD1002008E0012348
:1051E000524641463846C847013003D14FF0FF30A0
:1051F000BDE8F0870135C6E7E1185A1C302081F878
:105200004300224494F8451082F843100233C7E764
:105210000123224641463846C8470130E6D00136D0
:10522000D9E700002DE9FF470F7E0C9E782F9146AD
:1052300080460C469A4601F1430207D8622F0AD8ED
:10524000002F00F0DD80582F00F0C38004F14206EB
:1052500084F842703AE0A7F16303152BF6D801A158
:1052600051F823F0BD520008D15200084D520008F9
:105270004D5200084D5200084D520008D15200080E
:105280004D5200084D5200084D5200084D52000882
:10529000E75300085F5300089F5300084D52000871
:1052A0004D520008095400084D5200085F53000891
:1052B0004D5200084D520008A753000833681A1DCC
:1052C0001B68326004F1420684F842300123A8E0F2
:1052D00031682368081D30601E0601D50D6803E0A3
:1052E0005D06FBD5B1F900506168002D78DA2D20FC
:1052F000002984F84300A1602DDA5E486D420A233C
:105300001646B5FBF3F103FB1157C75D06F8017DA7
:105310002F46BB420D46F4D9082B0BD12368DF077B
:1053200008D5236961689942DEBF302306F8013C45
:1053300006F1FF36921B2261CDF800A04B4603AA6E
:1053400021464046FFF700FF01306FD14FF0FF309C
:1053500004B0BDE8F08723F004032360CDE72168A3
:105360003368080653F8045B02D4490648BFADB25F
:105370006F2F4048336014BF0A230823002184F8AC
:1053800043106668A660002EBADB216821F0040194
:105390002160002DB4D1002EB2D11646BCE723689F
:1053A00043F0200323603448782784F8457023684D
:1053B00031681F0651F8045B02D45F0648BFADB2E6
:1053C0003160D90744BF43F0200323601DB110238F
:1053D000D4E72848E9E7236823F020032360F6E7B1
:1053E00024480A23CDE7336825686169181D3060B9
:1053F0002E061B6801D5196002E06806FBD51980EE
:1054000000232361164697E733681A1D32601E6831
:10541000626800213046FAF7C3FE08B1801B606065
:1054200063682361002384F8433085E723693246AB
:1054300049464046D047013088D023689B0714D4A2
:10544000E068039B9842B8BF184681E701233246C3
:1054500049464046D04701303FF478AF0135E36814
:1054600003995B1AAB42F1DCEAE7002504F1190667
:10547000F5E700BFE3740008F4740008B1F90C20EC
:105480002DE9F041170705460C4656D44B68002B12
:1054900002DC0B6C002B3DDDE66A002E3AD00023C7
:1054A00012F480522F68216A2B6025D0626DA38987
:1054B000580705D56368D21A636B0BB1236CD21AF7
:1054C000216AE66A00232846B047411C24D0002305
:1054D000636023692360A389DA0400D56065616B8A
:1054E0002F60B9B104F14403994202D0284601F07B
:1054F00059F8002363630DE001232846B047461C9A
:105500000246D4D12B68002BD1D01D2B01D0162BF5
:105510002BD12F6000202FE02A68B4F90C3042B163
:105520001D2A01D0162A22D100236360236923603B
:10553000D5E7626022692260CEE70F69002FE9D0CB
:1055400093070E6808BF4B690F6018BF0023A6EBD6
:1055500007088B60B8F1000FDCDD216AA66A4346BC
:105560003A462846B047002808DCB4F90C3043F02E
:105570004003A3814FF0FF30BDE8F0810744A8EB62
:105580000008E7E738B50B6905460C4613B9002556
:10559000284638BD18B1036A0BB900F0B5F8B4F964
:1055A0000C30002BF3D0626ED00704D4990502D4DE
:1055B000A06D01F042F828462146FFF75FFF636EB9
:1055C000DA070546E4D4A3899B05E1D4A06D01F078
:1055D00035F8DDE70A44914200F1FF3300D170470E
:1055E00010B511F8014B03F8014F9142F9D110BDEC
:1055F000002310B50446C0E90033C0E904338360DA
:1056000081814366C2818361194608225C3000F0C3
:10561000C1FF0D4B63620D4BA3620D4BE3620D4B5B
:1056200023630D4B24629C4206D003F1680294422E
:1056300002D0D0339C4205D104F15800BDE810409F
:1056400000F0FABF10BD00BF395700085B570008D3
:1056500093570008B7570008C4050020024A0349C1
:10566000034800F079BF00BF68000020855500089E
:105670001C00002041680C4B994210B5044601D033
:10568000FFF780FFA168094B994202D02046FFF73F
:1056900079FFE168064B994204D02046BDE81040EE
:1056A000FFF770BF10BD00BFC40500202C0600200E
:1056B0009406002010B50B4B0B4C0C4A1A60204688
:1056C00000220421FFF794FF04F168000122092160
:1056D000FFF78EFF04F1D0000222BDE81040122136
:1056E000FFF786BFFC060020C40500205D560008B9
:1056F000014800F0A2BF00BF01070020014800F0F0
:105700009DBF00BF0107002010B50446FFF7F0FF62
:10571000236A1BB1BDE81040FFF7F0BF044B2362C2
:10572000044B1B68002BF5D1FFF7C4FFF2E700BF65
:1057300075560008FC06002010B50C46B1F90E1095
:1057400001F0F0F80028ABBF636DA3891B1823F4A8
:105750008053ACBF6365A38110BD2DE9F0411F46A6
:105760008B89DB0505460C46164605D5B1F90E10AA
:105770000223002201F0C4F8A389B4F90E1023F427
:105780008053A38132463B462846BDE8F04100F0F5
:10579000CBBE10B50C46B1F90E1001F0B1F8431CA8
:1057A000A38915BF606523F4805343F48053A3811C
:1057B00018BFA38110BDB1F90E1000F0A7BF2DE9ED
:1057C000F74F03690C69A34207467EDB013C01F1F8
:1057D0001408A30000F11405009305EB8403019362
:1057E00058F8243055F8242001339A4208EB8409F4
:1057F000B2FBF3F62ED34FF0000AC446AE46D346B2
:105800005CF8043B98B206FB00A0020C1B0C06FBE4
:105810000323DEF8002080B292B2121A5A44DEF856
:1058200000004FEA134A9BB2C3EB224303EB104341
:1058300092B242EA0342E1454EF8042B4FEA234B71
:10584000DED2009BEB582BB9019B043B9D421A46CC
:105850002FD33C61384601F013FB002825DB294695
:10586000002058F8042BD1F800C01FFA82FE1FFA5E
:105870008CF3A3EB0E030344120CC2EB234202EBA6
:105880001C429BB243EA0243C14541F8043B4FEA44
:105890002240E6D255F8242005EB840322B9043BCC
:1058A0009D421A460BD33C610136304603B0BDE839
:1058B000F08F1268043B002ACBD1013CC6E7126886
:1058C000043B002AEFD1013CEAE70020EEE70000AC
:1058D0002DE9F04FC76997B08DED000B55EC104BDB
:1058E000209E089183460C9212937FB9102000F0FD
:1058F0001DFF0246CBF81C0020B9A74BEF21A7489B
:1059000000F0BEFFC0E901770760C760DBF81C301C
:10591000196859B15A684A60012393408B60584610
:1059200001F070F8DBF81C3000221A602B1EB9BFA2
:1059300023F00043019300233360019F984BBCBFC9
:1059400001223260BB4319D1129A42F20F731360E5
:10595000C7F31303234300F0DD85219B53B9914B1B
:1059600021E0914B03930833219A1360039817B0F9
:10597000BDE8F08F8B4B03930333F5E79DED007B80
:10598000002251EC170B00238DED0A7BFBF784F806
:10599000804650B1129A01231360219B13B1219AC2
:1059A000824B1360824B0393E0E79DED0A0B14AA30
:1059B00015A9584601F014FBC7F30A560290002EB1
:1059C00078D00B9BCDF84C80C3F31303DDE90A01BB
:1059D00043F07F5343F44013A6F2FF3619460022EA
:1059E000744BFAF739FC66A3D3E90023FAF7ECFD10
:1059F00065A3D3E90023FAF731FC044630460D468F
:105A0000FAF778FD62A3D3E90023FAF7DDFD024639
:105A10000B4620462946FAF721FC04460D46FBF7C3
:105A200083F800220746002320462946FBF73EF86C
:105A300040B13846FAF75EFD22462B46FBF72CF8BC
:105A400000B9013F162F52D85B4B03EBC703D3E9D4
:105A50000023DDE90A01FBF729F8002849D0013FBE
:105A600000231193149B9B1B5A1E45BFC3F10103D6
:105A7000069300230023079254BF06930793002F39
:105A800039DB079B10973B44079300230993089B3E
:105A9000092B66D8052BC4BF043B0893089BA3F1D0
:105AA0000203CCBF00240124032B65D8DFE803F0F8
:105AB0002B383657DDE914631E4406F23243202B9F
:105AC000C1BFC3F140039F4006F2124324FA03F31F
:105AD000D6BFC3F1200347EA030004FA03F0FAF744
